:100000000C9472000C948B000C948B000C948B005D
:100010000C948B000C948B000C948B000C948B0034
:100020000C948B000C948B000C948B000C948B0024
:100030000C948B000C948B000C948B000C948B0014
:100040000C948B000C948B000C948B000C948B0004
:100050000C948B000C948B000C948B000C948B00F4
:100060000C948B000C948B000C948B000C948B00E4
:100070000C948B000C948B000C948B000C948B00D4
:100080000C948B000C948B000C948B000C948B00C4
:100090000C948B000C948B000C948B000C948B00B4
:1000A0000C948B000C948B000C948B000C948B00A4
:1000B0000C948B000C948B000C948B000C948B0094
:1000C0000C948B000C948B000C948B000C948B0084
:1000D0000C948B000C948B000C948B000C948B0074
:1000E0000C948B0011241FBECFEFD1E2DEBFCDBF39
:1000F00000E00CBF12E0A0E0B2E0EEE9F9E000E0C1
:100100000BBF02C007900D92A230B107D9F70E9431
:1001100062010C94CD040C9400009C01E0E9F0E035
:1001200082E080838AE1809391009081906890833F
:100130009081906290838FE39CE9909397008093E5
:100140009600309399002093980030939B00209361
:100150009A00089580E480937C0087E880937A0079
:10016000089590917C00987F8770892B80937C0004
:1001700080917A00806480937A0080917A0086FD75
:10018000FCCF80917800909179000895843041F0FF
:10019000853029F1833009F040C0CB010C948D00EB
:1001A00082E08093A0008AE18093A1008091A0006A
:1001B00080688093A0008091A00080628093A0005E
:1001C0008FE39CE99093A7008093A6007093A90009
:1001D0006093A8007093AB006093AA00089582E03A
:1001E000809320018AE18093210180912001806821
:1001F00080932001809120018062809320018FE311
:100200009CE99093270180932601709329016093C4
:10021000280170932B0160932A010895BC0180E0AE
:1002200090E00E94AA0320E030EC4FE754E40E94E3
:10023000090320E030E04AE755E40E94380420E05A
:1002400030E04AE754E40E949D020E947B03CB0108
:100250000895683E93E0790738F0693893E17907AB
:1002600028F068E873E102C068EE73E08230B1F014
:1002700028F4882349F0813061F008958430C1F07A
:1002800090F08530D1F008957093990060939800B4
:10029000089570939B0060939A0008957093A9004D
:1002A0006093A80008957093AB006093AA0008952E
:1002B0007093290160932801089570932B01609336
:1002C0002A010895CF93DF93CDB7DEB728970FB6F5
:1002D000F894DEBF0FBECDBF1E821D8218861F821E
:1002E0001A8219821C821B820E94AA008098889A16
:1002F00098E19DB987EE8EB9909301018093020138
:1003000090930A0180930B0180E984B980E185B95B
:100310008FEF87B988B988EB9BE00E948D0068EB6E
:100320007BE084E00E94C60068EB7BE085E00E94F1
:10033000C60088EBE82E8BE0F82E00E010E036993E
:1003400006C02F9A21E02093000200E010E03799C8
:1003500006C02F9882E08093000200E010E08091B8
:100360000002813021F0823009F495C0E8CF80E0AE
:100370000E94B1006C0181E00E94B1004C0182E05A
:100380000E94B1005C0183E00E94B1003C0184E066
:100390000E94B1002C0185E00E94B1001C01C60141
:1003A0000E940E016C01C4010E940E014C01C501A6
:1003B0000E940E015C01C3010E940E013C01C201BA
:1003C0000E940E012C01C1010E940E011C01B60108
:1003D00080E00E942901B40181E00E942901B50159
:1003E00082E00E942901B30183E00E942901B20149
:1003F00084E00E942901B10185E00E942901309921
:100400001FC0309BFECF8FE39CE90197F1F700C03E
:10041000000085B1805885B91A821982DC82CB82AE
:1004200044E050E0B801CE0101960E94B504F9996C
:10043000FECF0031110510F000E010E00C5F1F4FFF
:1004400030991FC0309BFECF8FE39CE90197F1F7F5
:1004500000C0000085B1805885B91A821982DC82FB
:10046000CB8244E050E0B801CE0101960E94B50471
:10047000F999FECF0031110510F000E010E00C5F9B
:100480001F4F9FEF20E782E0915020408040E1F72E
:1004900000C0000054CF44E050E0B801CE01059602
:1004A0000E94A5046F8178858D810E9429018F812A
:1004B00098858E159F0538F58F8198858E159F0537
:1004C00088F4B7018D810E9429019FEF20E782E027
:1004D000915020408040E1F700C0000092E3E91A0B
:1004E000F108EACFEF80F8842FEF8FE097E22150F8
:1004F00080409040E1F700C0000000311105C8F0D5
:1005000000E010E016C08F819885E816F90650F7D4
:10051000B7018D810E9429012FEF80E792E02150E1
:1005200080409040E1F700C0000022E3E20EF11CA1
:10053000EACF0C5F1F4F03CF5058BB27AA270E945A
:10054000B4020C94FE030E94F00338F00E94F703FB
:1005500020F039F49F3F19F426F40C94ED030EF4C7
:10056000E095E7FB0C94E703E92F0E940F0458F392
:10057000BA17620773078407950720F079F4A6F588
:100580000C9431040EF4E0950B2EBA2FA02D0B0124
:10059000B90190010C01CA01A0011124FF27591BC8
:1005A00099F0593F50F4503E68F11A16F040A22FCE
:1005B000232F342F4427585FF3CF4695379527953F
:1005C000A795F0405395C9F77EF41F16BA0B620B3E
:1005D000730B840BBAF09150A1F0FF0FBB1F661F85
:1005E000771F881FC2F70EC0BA0F621F731F841FC8
:1005F00048F4879577956795B795F7959E3F08F0EE
:10060000B0CF9395880F08F09927EE0F97958795AF
:1006100008950E941D030C94FE030E94F70358F0F6
:100620000E94F00340F029F45F3F29F00C94E703A7
:1006300051110C9432040C94ED030E940F0468F3E2
:100640009923B1F3552391F3951B550BBB27AA278B
:1006500062177307840738F09F5F5F4F220F331FC5
:10066000441FAA1FA9F335D00E2E3AF0E0E832D08D
:1006700091505040E695001CCAF72BD0FE2F29D090
:10068000660F771F881FBB1F261737074807AB0762
:10069000B0E809F0BB0B802DBF01FF2793585F4FD7
:1006A0003AF09E3F510578F00C94E7030C94320425
:1006B0005F3FE4F3983ED4F3869577956795B795B9
:1006C000F7959F5FC9F7880F911D9695879597F9C4
:1006D0000895E1E0660F771F881FBB1F621773073D
:1006E0008407BA0720F0621B730B840BBA0BEE1F52
:1006F00088F7E09508950E94170488F09F5798F0B6
:10070000B92F9927B751B0F0E1F0660F771F881F16
:10071000991F1AF0BA95C9F714C0B13091F00E9430
:100720003104B1E008950C943104672F782F8827A5
:10073000B85F39F0B93FCCF3869577956795B39557
:10074000D9F73EF490958095709561957F4F8F4FC6
:100750009F4F0895E89409C097FB3EF490958095CB
:10076000709561957F4F8F4F9F4F9923A9F0F92F77
:1007700096E9BB279395F695879577956795B795F5
:10078000F111F8CFFAF4BB0F11F460FF1BC06F5FDB
:100790007F4F8F4F9F4F16C0882311F096E911C0ED
:1007A000772321F09EE8872F762F05C0662371F00E
:1007B00096E8862F70E060E02AF09A95660F771F22
:1007C000881FDAF7880F9695879597F9089597F916
:1007D0009F6780E870E060E008959FEF80EC0895E7
:1007E00000240A9416161706180609060895002410
:1007F0000A9412161306140605060895092E03948A
:10080000000C11F4882352F0BB0F40F4BF2B11F4FD
:1008100060FF04C06F5F7F4F8F4F9F4F089557FD5C
:100820009058440F551F59F05F3F71F04795880F5E
:1008300097FB991F61F09F3F79F0879508951216F5
:1008400013061406551FF2CF4695F1DF08C01616A1
:1008500017061806991FF1CF869571056105089452
:100860000895E894BB2766277727CB0197F9089569
:100870000E944B040C94FE030E94F00338F00E9487
:10088000F70320F0952311F00C94E7030C94ED038B
:1008900011240C9432040E940F0470F3959FC1F34D
:1008A000950F50E0551F629FF001729FBB27F00D1E
:1008B000B11D639FAA27F00DB11DAA1F649F662773
:1008C000B00DA11D661F829F2227B00DA11D621FC2
:1008D000739FB00DA11D621F839FA00D611D221F7C
:1008E000749F3327A00D611D231F849F600D211D60
:1008F000822F762F6A2F11249F5750409AF0F1F0E3
:1009000088234AF0EE0FFF1FBB1F661F771F881F4B
:1009100091505040A9F79E3F510580F00C94E70399
:100920000C9432045F3FE4F3983ED4F386957795B8
:100930006795B795F795E7959F5FC1F7FE2B880FF1
:10094000911D9695879597F90895DC01CB01FC01DF
:10095000F999FECF06C0F2BDE1BDF89A319600B418
:100960000D9241505040B8F70895DC01CB0103C00F
:100970002D910E94C00441505040D0F70895262F79
:10098000F999FECF1FBA92BD81BD20BD0FB6F89474
:0E099000FA9AF99A0FBE01960895F894FFCFD7
:02099E00010056
:00000001FF
