:100000000C9472000C948B000C948B000C948B005D
:100010000C948B000C948B000C948B000C948B0034
:100020000C948B000C948B000C948B000C948B0024
:100030000C948B000C948B000C948B000C948B0014
:100040000C948B000C948B000C948B000C948B0004
:100050000C948B000C948B000C948B000C948B00F4
:100060000C948B000C948B000C948B000C948B00E4
:100070000C948B000C948B000C948B000C948B00D4
:100080000C948B000C948B000C948B000C948B00C4
:100090000C948B000C948B000C948B000C948B00B4
:1000A0000C948B000C948B000C948B000C948B00A4
:1000B0000C948B000C948B000C948B000C948B0094
:1000C0000C948B000C948B000C948B000C948B0084
:1000D0000C948B000C948B000C948B000C948B0074
:1000E0000C948B0011241FBECFEFD1E2DEBFCDBF39
:1000F00000E00CBF12E0A0E0B2E0E6E7FDE000E0C7
:100100000BBF02C007900D92A230B107D9F70E9431
:1001100062010C94B9060C9400009C01E0E9F0E047
:1001200082E080838AE1809391009081906890833F
:100130009081906290838FE39CE9909397008093E5
:100140009600309399002093980030939B00209361
:100150009A00089580E480937C0087E880937A0079
:10016000089590917C00987F8770892B80937C0004
:1001700080917A00806480937A0080917A0086FD75
:10018000FCCF80917800909179000895843041F0FF
:10019000853029F1833009F040C0CB010C948D00EB
:1001A00082E08093A0008AE18093A1008091A0006A
:1001B00080688093A0008091A00080628093A0005E
:1001C0008FE39CE99093A7008093A6007093A90009
:1001D0006093A8007093AB006093AA00089582E03A
:1001E000809320018AE18093210180912001806821
:1001F00080932001809120018062809320018FE311
:100200009CE99093270180932601709329016093C4
:10021000280170932B0160932A010895BC0180E0AE
:1002200090E00E94960520E030EC4FE754E40E94F5
:10023000F50420E030E04AE755E40E94240620E07F
:1002400030E04AE754E40E9489040E946705CB012C
:100250000895683E93E0790738F0693893E17907AB
:1002600028F068E873E102C068EE73E08230B1F014
:1002700028F4882349F0813061F008958430C1F07A
:1002800090F08530D1F008957093990060939800B4
:10029000089570939B0060939A0008957093A9004D
:1002A0006093A80008957093AB006093AA0008952E
:1002B0007093290160932801089570932B01609336
:1002C0002A010895CF93DF93CDB7DEB7A6970FB677
:1002D000F894DEBF0FBECDBF009198001091990039
:1002E000E0909A00F0909B00C090A800D090A900E8
:1002F000A090AA00B090AB008090280190902901B6
:1003000020902A0130902B011A8E198E1C8E1B8E84
:100310001E8A1D8A188E1F8A81E090E09A8B898B35
:100320001C8A1B8A82E090E09E878D87188A1F8630
:1003300083E090E09A8789871C861B8684E090E0A2
:100340009E838D8318861F8285E090E09A8389833F
:100350001C821B820E94AA008098889A98E19DB90D
:1003600087EE8EB9909301018093020190930A0168
:1003700080930B0180E984B980E185B98FEF87B95B
:1003800088B988EB9BE00E948D0068EB7BE084E0FD
:100390000E94C60068EB7BE085E00E94C600412C0D
:1003A000512C369906C02F9A21E020930002412C4F
:1003B000512C379906C02F9882E080930002412C7F
:1003C000512C80910002813021F0823009F437C134
:1003D000E8CF80E00E94B1009E8F8D8F81E00E9467
:1003E000B10098A38F8F82E00E94B1009AA389A3E5
:1003F00083E00E94B1009CA38BA384E00E94B10023
:100400009EA38DA385E00E94B1003C018D8D9E8D41
:100410000E940E019E8F8D8F8F8D98A10E940E01DC
:1004200098A38F8F89A19AA10E940E019AA389A3F4
:100430008BA19CA10E940E019CA38BA38DA19EA1C8
:100440000E940E019EA38DA3C3010E940E013C01D8
:100450006D8D7E8D80E00E9429016F8D78A181E0F5
:100460000E94290169A17AA182E00E9429016BA161
:100470007CA183E00E9429016DA17EA184E00E94FD
:100480002901B30185E00E942901309921C0309BE8
:10049000FECF8FE39CE90197F1F700C0000085B122
:1004A000805885B98D8D9E8D988F8F8B44E050E05C
:1004B000B201CE0145960E94A106F999FECF90E1C6
:1004C0004916510410F0412C512C24E0420E511CCD
:1004D000319921C0319BFECF8FE39CE90197F1F761
:1004E00000C0000085B1805885B98F8D98A19C8B84
:1004F0008B8B44E050E0B201CE0141960E94A106F0
:10050000F999FECF90E14916510410F0412C512C7D
:1005100024E0420E511C329921C0319BFECF8FE363
:100520009CE90197F1F700C0000085B1805885B9BA
:1005300089A19AA1988B8F8744E050E0B201CE0147
:100540000D960E94A106F999FECF90E1491651043B
:1005500010F0412C512C24E0420E511C339921C043
:10056000339BFECF8FE39CE90197F1F700C00000B9
:1005700085B1805885B98BA19CA19C878B8744E06D
:1005800050E0B201CE0109960E94A106F999FECF72
:1005900090E14916510410F0412C512C24E0420EF8
:1005A000511C349921C0349BFECF8FE39CE9019705
:1005B000F1F700C0000085B1805885B98DA19EA1DA
:1005C00098878F8344E050E0B201CE0105960E94E7
:1005D000A106F999FECF90E14916510410F0412C83
:1005E000512C24E0420E511C35991FC0359BFECF83
:1005F0008FE39CE90197F1F700C0000085B18058B6
:1006000085B97C826B8244E050E0B201CE01019654
:100610000E94A106F999FECF94E0490E511C21E1F8
:100620004216510410F0412C512C8FEF90E722E03C
:10063000815090402040E1F700C00000B2CE44E07D
:1006400050E0B201CE0149960E949106898D9A8DA3
:100650008230910509F47BC030F4009771F0019766
:1006600009F43FC04CC18430910509F4DCC008F4A2
:10067000A4C0059709F40DC142C18B8D9C8D08174C
:100680001907D0F48B8D9C8D0817190780F4B801D9
:10069000898D0E9429018FEF90E722E081509040E0
:1006A0002040E1F700C000000E5C1F4FEBCF00912F
:1006B00098001091990023C18B8D9C8D8017910714
:1006C000B0F7B801898D0E9429018FEF90E722E0F1
:1006D000815090402040E1F700C000000253110912
:1006E000EBCF8B8D9C8DE816F906D8F48B8D9C8D05
:1006F000E816F90688F4B701898D0E9429018FEF69
:1007000090E722E0815090402040E1F700C00000D7
:1007100082E3E80EF11CEACFE0909A00F0909B0093
:10072000EEC08B8D9C8D8E159F05B0F7B701898D1E
:100730000E9429019FEF20E782E0915020408040F5
:10074000E1F700C0000092E3E91AF108EACF8B8DCF
:100750009C8DC816D906D8F48B8D9C8DC816D906E9
:1007600088F4B601898D0E9429012FEF80E792E07D
:10077000215080409040E1F700C0000022E3C20E0B
:10078000D11CEACFC090A800D090A900B8C08B8D32
:100790009C8D8C159D05B0F7B601898D0E942901AD
:1007A0008FEF90E722E0815090402040E1F700C0B9
:1007B000000082E3C81AD108EACF8B8D9C8DA81661
:1007C000B906D8F48B8D9C8DA816B90688F4B501AE
:1007D000898D0E9429019FEF20E782E091502040FF
:1007E0008040E1F700C0000092E3A90EB11CEACFFF
:1007F000A090AA00B090AB0082C08B8D9C8D8A1512
:100800009B05B0F7B501898D0E9429012FEF80E784
:1008100092E0215080409040E1F700C0000022E3C8
:10082000A21AB108EACF8B8D9C8D88169906D8F450
:100830008B8D9C8D8816990688F4B401898D0E9451
:1008400029018FEF90E722E0815090402040E1F7AE
:1008500000C0000082E3880E911CEACF809028013E
:10086000909029014CC08B8D9C8D88159905B0F70F
:10087000B401898D0E9429019FEF20E782E0915009
:1008800020408040E1F700C0000092E3891A9108FF
:10089000EACF8B8D9C8D28163906D8F48B8D9C8DD4
:1008A0002816390688F4B101898D0E9429012FEF9D
:1008B00080E792E0215080409040E1F700C00000C6
:1008C00022E3220E311CEACF20902A0130902B0126
:1008D00016C08B8D9C8D82159305B0F7B101898D63
:1008E0000E9429018FEF90E722E081509040204044
:1008F000E1F700C0000082E3281A3108EACF94E053
:10090000490E511C21E14216510408F44ACD47CD4D
:100910005058BB27AA270E94A0040C94EA050E9405
:10092000DC0538F00E94E30520F039F49F3F19F40C
:1009300026F40C94D9050EF4E095E7FB0C94D3054E
:10094000E92F0E94FB0558F3BA1762077307840763
:10095000950720F079F4A6F50C941D060EF4E095A9
:100960000B2EBA2FA02D0B01B90190010C01CA0169
:10097000A0011124FF27591B99F0593F50F4503E14
:1009800068F11A16F040A22F232F342F4427585F06
:10099000F3CF469537952795A795F0405395C9F71E
:1009A0007EF41F16BA0B620B730B840BBAF09150D6
:1009B000A1F0FF0FBB1F661F771F881FC2F70EC075
:1009C000BA0F621F731F841F48F487957795679548
:1009D000B795F7959E3F08F0B0CF9395880F08F034
:1009E0009927EE0F9795879508950E9409050C9415
:1009F000EA050E94E30558F00E94DC0540F029F466
:100A00005F3F29F00C94D30551110C941E060C94F1
:100A1000D9050E94FB0568F39923B1F3552391F39F
:100A2000951B550BBB27AA2762177307840738F05D
:100A30009F5F5F4F220F331F441FAA1FA9F335D0BA
:100A40000E2E3AF0E0E832D091505040E695001C6E
:100A5000CAF72BD0FE2F29D0660F771F881FBB1F28
:100A6000261737074807AB07B0E809F0BB0B802D06
:100A7000BF01FF2793585F4F3AF09E3F510578F032
:100A80000C94D3050C941E065F3FE4F3983ED4F318
:100A9000869577956795B795F7959F5FC9F7880F06
:100AA000911D9695879597F90895E1E0660F771F58
:100AB000881FBB1F621773078407BA0720F0621BE9
:100AC000730B840BBA0BEE1F88F7E09508950E9414
:100AD000030688F09F5798F0B92F9927B751B0F0C7
:100AE000E1F0660F771F881F991F1AF0BA95C9F7B2
:100AF00014C0B13091F00E941D06B1E008950C942D
:100B00001D06672F782F8827B85F39F0B93FCCF3DF
:100B1000869577956795B395D9F73EF4909580952E
:100B2000709561957F4F8F4F9F4F0895E89409C04E
:100B300097FB3EF490958095709561957F4F8F4F10
:100B40009F4F9923A9F0F92F96E9BB279395F69526
:100B5000879577956795B795F111F8CFFAF4BB0FA4
:100B600011F460FF1BC06F5F7F4F8F4F9F4F16C008
:100B7000882311F096E911C0772321F09EE8872F92
:100B8000762F05C0662371F096E8862F70E060E04E
:100B90002AF09A95660F771F881FDAF7880F9695C7
:100BA000879597F9089597F99F6780E870E060E06E
:100BB00008959FEF80EC089500240A9416161706F6
:100BC00018060906089500240A941216130614063E
:100BD00005060895092E0394000C11F4882352F0A1
:100BE000BB0F40F4BF2B11F460FF04C06F5F7F4F59
:100BF0008F4F9F4F089557FD9058440F551F59F040
:100C00005F3F71F04795880F97FB991F61F09F3FF9
:100C100079F087950895121613061406551FF2CF22
:100C20004695F1DF08C0161617061806991FF1CF72
:100C300086957105610508940895E894BB27662799
:100C40007727CB0197F908950E9437060C94EA059F
:100C50000E94DC0538F00E94E30520F0952311F096
:100C60000C94D3050C94D90511240C941E060E94F3
:100C7000FB0570F3959FC1F3950F50E0551F629FE0
:100C8000F001729FBB27F00DB11D639FAA27F00DE5
:100C9000B11DAA1F649F6627B00DA11D661F829F0C
:100CA0002227B00DA11D621F739FB00DA11D621FF1
:100CB000839FA00D611D221F749F3327A00D611D0E
:100CC000231F849F600D211D822F762F6A2F1124F0
:100CD0009F5750409AF0F1F088234AF0EE0FFF1F23
:100CE000BB1F661F771F881F91505040A9F79E3F7A
:100CF000510580F00C94D3050C941E065F3FE4F37D
:100D0000983ED4F3869577956795B795F795E795CF
:100D10009F5FC1F7FE2B880F911D9695879597F9D8
:100D20000895DC01CB01FC01F999FECF06C0F2BDAC
:100D3000E1BDF89A319600B40D9241505040B8F799
:100D40000895DC01CB0103C02D910E94AC064150F7
:100D50005040D0F70895262FF999FECF1FBA92BDC3
:100D600081BD20BD0FB6F894FA9AF99A0FBE01968C
:060D70000895F894FFCF86
:020D760001007A
:00000001FF
